:1000000045C0000058C0000056C0000054C00000A9
:1000100052C0000050C000004EC000004CC00000A4
:100020004AC0000048C0000046C0000044C00000B4
:1000300042C0000040C000003EC000003CC00000C4
:100040003AC0000038C0000036C0000034C00000D4
:1000500032C0000030C000002EC000002CC00000E4
:100060002AC0000028C0000026C0000024C00000F4
:1000700022C0000020C000001EC000001CC0000004
:100080001AC0000018C0000016C0000011241FBED6
:10009000CFEFD0E1DEBFCDBF11E0A0E0B1E0E2EDF7
:1000A000F5E000E00BBF02C007900D92AE31B10742
:1000B000D9F7DED08CC2A4CF80EF82B98FEF87BB97
:1000C0008FE084BB08950F931F93CF93DF93FC01C0
:1000D000AB018B0116950795169507951695079513
:1000E0009801A5ECB0E22ED2EC01D295C295CF706A
:1000F000CD27DF70CD27C38328EE33E0C29FC00138
:10010000C39F900DD29F900D11249A01281B390B8B
:10011000C90164E670E0E7D162836AE070E0E3D190
:1001200061838083DF91CF911F910F91089580E0CB
:1001300030C0482F50E021E030E0082E02C0220FEE
:10014000331F0A94E2F725BBE6E6FEE03197F1F7AC
:10015000000093B3907FE1F0903269F018F4903191
:1001600031F01BC0903459F0903869F016C0880FF8
:10017000880F8F5F0895880F880F8E5F0895880F0E
:10018000880F8D5F0895CA010196880F880F089522
:100190008F5F843070F280E0089580E008950097CA
:1001A00011F19C0123703327232BB9F09C01369564
:1001B000279536952795922F990F290F8370820FD7
:1001C0008A30A0F08B3029F08C3029F08A3071F41D
:1001D0000CC080E008958EE10895969587959695D8
:1001E0008795875F089580E0089584E1089520E071
:1001F00030E005C045E04A95F1F72F5F3F4F2817E3
:100200003907C0F30895CF92DF92EF92FF920F93D8
:100210001F93CF93DF936C019C01990F440B550BF7
:1002200060E573EC80E090E071D1790100E010E0CE
:100230000EC0C5E6D0E0888180618883C601D7DF23
:1002400088818F7E8883C601D2DF0F5F1F4F0E1516
:100250001F057CF3E5E6F0E0808180618083DF911B
:10026000CF911F910F91FF90EF90DF90CF90089565
:10027000CF93DF93CDB7DEB728970FB6F894DEBFE4
:100280000FBECDBF19821A821B821C821D821E8264
:100290001F82188611DFE4E6F0E0808180618083B0
:1002A000E5E6F0E0808180618083E12C10E0C12CE4
:1002B000D12C3DDF26E636EE90E0215030409040D4
:1002C000E1F7882309F4CEC090E069DF682F70E081
:1002D0006A307105A4F5E110C1C098859111BAC0CA
:1002E000112339F09F8198879E819F839D819E83F2
:1002F00010E08D83488528EE33E0429FC001439F84
:10030000900D11242F81AC0134E6239F400D511D27
:1003100011249E81892F90E0FC01EE0FFF1F9C01AC
:10032000220F331F220F331F220F331FCF01820FE3
:10033000931F840F951F680F791F6B018FC0643165
:100340007105A9F409C0E5E0F0E0EC0FFD1FE80F2E
:10035000F91F1082019602C080E090E08430910580
:1003600094F3E12CC12CD12C60E070E077C06E31A9
:10037000710509F067C0E0E0F1E0408128EE33E06C
:10038000429FC001439F900D11242181AC0134E6AE
:10039000239F400D511D11249281892F90E0BC01B3
:1003A000660F771F9C01220F331F220F331F220F6E
:1003B000331FCB01820F931F840F951F2381820F60
:1003C000911DC816D90699F080EF83B980911C0160
:1003D00088BB84E797E017DF86E69EE00197F1F798
:1003E000000084E797E00FDF80E090E025C080E622
:1003F00083B98CED88BB8AEB93E005DF82E593E05F
:1004000002DF85EF92E0FFDE8CEC92E0FCDE8DE710
:1004100092E0F9DE88E392E0F6DE8AEF91E0F3DE27
:100420008DED91E0F0DEE0CFE5E0F0E0EC0FFD1FB8
:10043000E80FF91F1082019684309105ACF360E05B
:1004400070E00CC0282F30E02A50310924303105EB
:1004500018F004C0B60102C0E82EB601CE01019624
:1004600032DE01C011E0A4E0B1E08C9183B9E981F2
:10047000F0E0E45FFE4F808188BB8FEF93E201974D
:10048000F1F700C0000012968C91129783B9EA81AF
:10049000F0E0E45FFE4F808188BB8FEF93E201972D
:1004A000F1F700C0000014968C91149783B9EB818A
:1004B000F0E0E45FFE4F808188BB8FEF93E201970D
:1004C000F1F700C0000016968C9183B9EC81F0E042
:1004D000E45FFE4F808188BB8FEF93E20197F1F7D5
:1004E00000C00000E6CE97FB072E16F4009406D05D
:1004F00077FD08D036D007FC05D03EF49095819565
:100500009F4F0895709561957F4F0895052E97FB35
:1005100016F400940FD057FD05D037D007FC02D059
:1005200046F408C050954095309521953F4F4F4F68
:100530005F4F089590958095709561957F4F8F4F8F
:100540009F4F0895A29FB001B39FC001A39F700D5C
:10055000811D1124911DB29F700D811D1124911DCB
:100560000895AA1BBB1B51E107C0AA1FBB1FA617FA
:10057000B70710F0A61BB70B881F991F5A95A9F74C
:1005800080959095BC01CD010895A1E21A2EAA1B79
:10059000BB1BFD010DC0AA1FBB1FEE1FFF1FA21733
:1005A000B307E407F50720F0A21BB30BE40BF50B30
:1005B000661F771F881F991F1A9469F760957095B9
:1005C000809590959B01AC01BD01CF010895F894F1
:0205D000FFCF5B
:1005D200020300071F002F004F008F00C0F9A4B0D4
:0E05E200999282D880908883C4A1848EBF0035
:00000001FF
