:1000000045C000004BC0000049C0000047C00000D0
:1000100045C0000043C0000041C000003FC00000D8
:100020003DC000003BC0000039C0000037C00000E8
:1000300035C0000033C0000031C000002FC00000F8
:100040002DC000002BC0000029C0000027C0000008
:1000500025C0000023C0000021C000001FC0000018
:100060001DC000001BC0000019C0000017C0000028
:1000700015C0000013C0000011C000000FC0000038
:100080000DC000000BC0000009C0000011241FBEFD
:10009000CFEFD0E1DEBFCDBF3CD087C0B1CF20E0F5
:1000A00030E005C045E04A95F1F72F5F3F4F281734
:1000B0003907C0F3E5E6F0E0808180618083089530
:1000C0000F931F93CF93DF938C0115950795C5E68A
:1000D000D0E0888180618883C801E1DF88818F7EDC
:1000E0008883C801DCDFDF91CF911F910F910895C4
:1000F00020B330E02095309502C0359527958A953C
:10010000E2F7C9018170992720FF02C081E090E0E9
:1001100008958FEF8093640080E090E0E9DF01971D
:1001200021F489EE9EE0CCDFF7CF81E090E0E0DFC4
:10013000019721F489E49DE0C3DFEECF82E090E0F7
:10014000D7DF019721F486ED9BE0BADFE5CF83E0AE
:1001500090E0CEDF019721F481E39BE0B1DFDCCFBB
:1001600084E090E0C5DF019721F487EF99E0A8DFF4
:10017000D3CF85E090E0BCDF019721F481EE98E0D9
:100180009FDFCACF86E090E0B3DF019721F488EECD
:1001900097E096DFC1CF87E090E0AADF019709F0F2
:0E01A000BBCF84E797E08CDFB7CFF894FFCF9A
:00000001FF
