:1000000045C0000058C0000056C0000054C00000A9
:1000100052C0000050C000004EC000004CC00000A4
:100020004AC0000048C0000046C0000044C00000B4
:1000300042C0000040C000003EC000003CC00000C4
:100040003AC0000038C0000036C0000034C00000D4
:1000500032C0000030C000002EC000002CC00000E4
:100060002AC0000028C0000026C0000024C00000F4
:1000700022C0000020C000001EC000001CC0000004
:100080001AC0000018C0000016C0000011241FBED6
:10009000CFEFD0E1DEBFCDBF11E0A0E0B1E0E4E101
:1000A000F5E000E00BBF02C007900D92AA31B10746
:1000B000D9F7ACD02DC2A4CF80EF82B98FEF87BB28
:1000C0008FE084BB08950F931F93CF93DF93FC01C0
:1000D000AB018B0116950795169507951695079513
:1000E0009801A5ECB0E2F1D1EC01D295C295CF70A8
:1000F000CD27DF70CD27C38328EE33E0C29FC00138
:10010000C39F900DD29F900D11249A01281B390B8B
:10011000C90164E670E0C6D162836AE070E0C2D1D2
:1001200061838083DF91CF911F910F91089580E0CB
:1001300027EF27C025BBE6E6FEE03197F1F7000088
:1001400093B3907FE1F0903269F018F4903131F080
:100150001CC0903459F0903869F017C0880F880F90
:100160008F5F0895880F880F8E5F0895880F880F1E
:100170008D5F089590E00196880F880F0895269569
:100180008F5F8430B8F280E0089580E00895009792
:1001900011F19C0123703327232BB9F09C01369574
:1001A000279536952795922F990F290F8370820FE7
:1001B0008A30A0F08B3029F08C3029F08A3071F42D
:1001C0000CC080E008958EE10895969587959695E8
:1001D0008795875F089580E0089584E1089580E021
:1001E00012C0E82FF0E0EE0FFF1FE050FF4F9081AC
:1001F00093B99091180198BBEFEFF3E23197F1F7C3
:1002000000C000008F5F843060F30895CF93DF93C8
:10021000CDB7DEB72C970FB6F894DEBF0FBECDBFBB
:1002200019821A821B821C821D821E821F821886DE
:1002300019861A861B861C863FDFB12C00E010E071
:10024000D12CE12CF12C812C912C71DF882309F425
:10025000DFC090E09CDF682F70E06A3071050CF021
:1002600066C0002391F19C859111C6C0112339F01D
:100270009B859C879A859B8799859A8710E08987BB
:100280004C8528EE33E0429FC001439F900D11241E
:100290002B85AC0134E6239F400D511D11249A8516
:1002A000892F90E0FC01EE0FFF1F9C01220F331FEE
:1002B000220F331F220F331FCF01820F931F840F92
:1002C000951F680F791F7B019FC09885911196C07B
:1002D000112339F09F8198879E819F839D819E8302
:1002E00010E08D83488528EE33E0429FC001439F94
:1002F000900D11242F81AC0134E6239F400D511D38
:1003000011249E81892F90E0FC01EE0FFF1F9C01BC
:10031000220F331F220F331F220F331FCF01820FF3
:10032000931F840F951F680F791F4B016DC06431B7
:10033000710501F510C0E9E0F0E0EC0FFD1FE80FDA
:10034000F91F1082E5E0F0E0EC0FFD1FE80FF91F48
:100350001082019602C080E090E0843091055CF349
:10036000B12C00E0D12CE12CF12C812C912C60E0FF
:1003700070E04AC06E317105B9F50B30A9F018F480
:100380000A3031F024C00C30B9F00D30E1F01FC05C
:10039000B4016E197F09F2F477231CF4719561950D
:1003A0007109BB24B39419C08E9CB0018F9C700D51
:1003B0009E9C700D112411C0E114F10469F0C40178
:1003C000B70170D00AC0B4016E0D7F1D06C060E099
:1003D00070E003C0B12C01C0B701603187E278073B
:1003E0007CF0DD24D39410C0282F30E02A5031094E
:1003F0002430310538F008C0B70106C0B40104C08C
:10040000D12C02C0082FB401CE0101965CDE01C0E0
:1004100011E0DD2011F0E3DE18CFA0E0B1E08C9117
:1004200083B9E981F0E0E85FFE4F80819B2D9795CD
:1004300099279795890F88BB8FEF93E20197F1F782
:1004400000C0000012968C91129783B9EA81F0E007
:10045000E85FFE4F808188BB8FEF9FE80197F1F73F
:1004600000C0000014968C91149783B9EB81F0E0E2
:10047000E85FFE4F808188BB8FEF93E20197F1F731
:1004800000C0000016968C9183B9EC81F0E0E85F23
:10049000FE4F808188BB8FEF93E20197F1F700C098
:1004A0000000D3CE97FB072E16F4009406D077FDFC
:1004B00008D01AD007FC05D03EF4909581959F4F47
:1004C0000895709561957F4F0895A29FB001B39FE5
:1004D000C001A39F700D811D1124911DB29F700D4D
:1004E000811D1124911D0895AA1BBB1B51E107C05A
:1004F000AA1FBB1FA617B70710F0A61BB70B881FB4
:10050000991F5A95A9F780959095BC01CD01089542
:04051000F894FFCF8D
:100514001F002F004F008F00C0F9A4B0999282D819
:0A05240080908883C6A1868EBF0078
:00000001FF
