S01700006578616D335F70726F666573736F722E73726563ED
S11300007EC0000091C000008FC000008DC00000C1
S11300108BC0000089C0000087C0000085C00000BC
S113002083C0000081C000007FC000007DC00000CC
S11300307BC0000079C0000077C0000075C00000DC
S113004073C0000071C000006FC000006DC00000EC
S11300506BC0000069C0000067C0000065C00000FC
S113006063C0000061C000005FC000005DC000000C
S11300705BC0000059C0000057C0000055C000001C
S113008053C0000051C000004FC00000BB00E80096
S1130090D000E800C400E500C700C100E200E800A9
S11300A0E800B800E800E800DC00B500E800E8007B
S11300B0D300E800D600E800E800E800E800E80023
S11300C0E800E800E800E800E800E800E800E800EC
S11300D0E800CD00E800E800E800E800E800E800F7
S11300E0E800E800E800DF00CA00E800E800D90002
S11300F0E800E800E800E800E800E800BE00112499
S11301001FBECFEFD0E1DEBFCDBF11E0A0E0B1E074
S1130110E6E7F2E000E00BBF02C007900D92A032C8
S1130120B107D9F769D0A5C06BCF009719F480E166
S113013083B910C08130910519F480E283B90AC0F3
S11301408230910519F480E483B904C0039711F453
S113015080E883B9862F90E0FC01E154F109E9338A
S1130160F105B0F5EA5BFF4F7BC08CE888BB0895CE
S113017087EC88BB089588E888BB089581E988BB2B
S1130180089589E888BB089586E888BB089582ECC1
S113019088BB089583EA88BB089581EA88BB0895E3
S11301A086EC88BB089582E988BB089581EC88BBFE
S11301B008958FEA88BB089580EC88BB08958BEA84
S11301C088BB08958FEC88BB08958EE888BB08959A
S11301D08FEF88BB089520B330E02095309502C09E
S11301E0359527958A95E2F7C9018170992720FFF3
S11301F002C081E090E008958FEF87BB9FE094BB3D
S113020011BA82B980E883B9E12CF12C00E010E046
S11302100330110519F00F5F1F4F02C000E010E01A
S1130220C0E0D0E005C0CE01D6DF892B29F42196A9
S1130230C830D105C4F301C07E01F701EE0FFF1FE2
S1130240EE0FFF1FE050FF4FE00FF11F6081C80168
S11302506CDF8FEF93E20197F1F700C00000D8CF75
S1130260EE0FFF1F0024001C0BBE0790F691E02D3B
S10902700994F894FFCF8D
S1130276504C417948454C50476F6F64436F6F4CFF
S1130286535572454F50456E4C494645436F644538
S9030000FC
