S00E000066696E616C322E73726563DA
S113000045C0000060C000005EC000005CC000008D
S11300105AC0000058C0000056C0000054C0000080
S113002052C0000050C000004EC000004CC0000090
S11300304AC0000048C0000046C0000052C0000092
S113004042C0000040C000003EC000003CC00000B0
S11300503AC0000038C0000036C0000034C00000C0
S113006032C0000030C000002EC000002CC00000D0
S11300702AC0000028C000000BC1000024C00000FA
S113008022C0000020C000001EC0000011241FBEBA
S1130090CFEFD0E1DEBFCDBF11E0A0E0B1E0E0E002
S11300A0F4E000E00BBF02C007900D92A833B10743
S11300B0D9F721E0A8E3B1E001C01D92A035B20751
S11300C0E1F773D09BC19CCF83B7886083BF12BE16
S11300D084E281BF87B7826087BF83B7876083BFAD
S11300E008951F920F920FB60F9211248F939F932E
S11300F080914E0190914F01019690934F0180930E
S11301004E01049721F410924F0110924E0181E0A8
S113011090E090934D0180934C019F918F910F90AB
S11301200FBE0F901F901895EAE9F0E08081806877
S113013080838081886180838FE58093990008950E
S113014090919B0095FFFCCF80939C000895CF93E2
S1130150DF93EC0102C0F4DF219688818111FBCF8B
S1130160DF91CF9108958330910519F480E183B92B
S113017010C08230910519F480E283B90AC081303D
S1130180910519F480E483B904C0892B11F480E843
S113019083B9FB01E050FF4F808188BB413051059A
S11301A019F488B38F7788BB08958FEF87BB82B922
S11301B088BB80E883B9B8DF87DF789481E191E078
S11301C0C6DF80914C0190914D01892BD1F3809130
S11301D04E0190914F01FC01EE0FFF1FEC5BFE4FAF
S11301E06081718140E050E0BEDF10924D011092B9
S11301F04C01E7CFEF92FF920F931F93CF93DF93BE
S113020068EE73E0D4D0EC0140E050E080E090E090
S1130210AADF8FEF93E20197F1F700C0000004E634
S113022010E0CE01B801C3D07C0140E050E081E091
S113023090E099DFEFEFF3E23197F1F700C00000AF
S1130240CAE0D0E0C701BE01B2D041E050E082E094
S113025090E089DFC701B801AAD0EFEFF3E231974C
S1130260F1F700C00000BE01A2D040E050E0BC01A4
S113027083E090E078DF8FEF93E20197F1F700C01D
S11302800000DF91CF911F910F91FF90EF9008959F
S11302901F920F920FB60F9211240BB60F922F9349
S11302A03F934F935F936F937F938F939F93AF93FA
S11302B0BF93CF93EF93FF93C0919C008C2F40DFAB
S11302C0CD3081F523C080913A0190913B012817EC
S11302D0390794F4FC013197E21BF30BEE0FFF1F77
S11302E0E45CFE4F80819181F901EE0FFF1FEC5B0E
S11302F0FE4F9183808307C0F901EE0FFF1FEC5B73
S1130300FE4F118210822F5F3F4F02C020E030E089
S113031024303105C4F210923B0110923A018AE074
S11303200FDF31C080ED8C0F8A30C0F420913A0188
S113033030913B012430310534F58C2F90E0C09787
S1130340F901EE0FFF1FE45CFE4F918380832F5F62
S11303503F4F30933B0120933A0115C0C33571F4EC
S113036080913801909139011816190614F442DF6E
S11303700AC0109239011092380105C0C03519F431
S113038085E291E0E4DEFF91EF91CF91BF91AF91CF
S11303909F918F917F916F915F914F913F912F9199
S11303A00F900BBE0F900FBE0F901F90189597FBE8
S11303B0072E16F4009406D077FD08D00BD007FC66
S11303C005D03EF4909581959F4F08957095619561
S11303D07F4F0895AA1BBB1B51E107C0AA1FBB1F77
S11303E0A617B70710F0A61BB70B881F991F5A95BD
S11303F0A9F780959095BC01CD010895F894FFCF9D
S1130400C0F9A4B0999282D880908883C6A1868EC0
S1130410BF0D0A2054696D65722050726F67726156
S11304206D200D0A000D0A2054696D65722050611B
S10B0430757365200D0A00003C
S9030000FC
