S0170000657831345F355F70726163746963652E737265638D
S11300007FC000009AC0000098C0000096C00000A5
S113001094C0000092C0000090C000008EC0000098
S11300208CC000008AC0000088C0000086C00000A8
S113003084C0000082C0000080C000008CC00000AA
S11300407CC000007AC0000078C0000076C00000C8
S113005074C0000072C0000070C000006EC00000D8
S11300606CC000006AC0000068C0000066C00000E8
S113007064C0000062C00000A4C000005EC00000B4
S11300805CC000005AC0000058C000008001160285
S113009083011602860189018C018F019201950169
S11300A098019B019E01A101A401A701AA01AD0130
S11300B0B001B301B601B901BC01BF01C201C50160
S11300C0160216021602160216021602C801CB0107
S11300D0CE01D101D401D701DA01DD01E001E30150
S11300E0E601E901EC01EF01F201F501F801FB0180
S11300F0FE010102040207020A020D0210021302A9
S113010011241FBECFEFD0E1DEBFCDBF11E0A0E0D0
S1130110B1E0E8E8F4E000E00BBF02C007900D9204
S1130120AA30B107D9F721E0AAE0B1E001C01D92DD
S1130130A831B207E1F77DD1A5C162CF83B788604A
S113014083BF12BE84E281BF87B7826087BF83B753
S1130150876083BF08951F920F920FB60F921124E8
S11301608F939F9380911201909113010196909324
S1130170130180931201049721F410921301109239
S1130180120181E090E090931101809310019F91FE
S11301908F910F900FBE0F901F901895EAE9F0E031
S11301A08081806880838081886180838FE58093EB
S11301B09900089590919B0095FFFCCF80939C003B
S11301C008951F920F920FB60F9211240BB60F923F
S11301D02F933F934F935F936F937F938F939F934B
S11301E0AF93BF93CF93EF93FF93C0919C008C2F59
S11301F0E1DFCD3039F51AC020910A0130910B01AD
S11302008217930764F4F9013197E81BF90BEC5E4C
S1130210FE4F2081FC01E45FFE4F208305C020E2F5
S1130220FC01E45FFE4F2083019602C080E090E071
S1130230843091050CF310920B0110920A018AE0AC
S1130240B9DF1CC080ED8C0F8A3040F08FEB8C0F2F
S11302508A3120F08FE98C0F8A3180F480910A0171
S113026090910B01843091054CF4FC01EC5EFE4F3F
S1130270C083019690930B0180930A01FF91EF9143
S1130280CF91BF91AF919F918F917F916F915F912A
S11302904F913F912F910F900BBE0F900FBE0F9077
S11302A01F901895CF93DF93EC0102C083DF219652
S11302B088818111FBCFDF91CF910895833091051F
S11302C019F480E183B910C08230910519F480E2F9
S11302D083B90AC08130910519F480E483B904C05C
S11302E0892B11F480E883B9862F90E0FC01E15456
S11302F0F109EA33F10508F099C0EA5BFF4FB9C090
S113030088E888BB089586EC88BB089586E888BB96
S113031008958EE888BB089582EC88BB089589E827
S113032088BB08958FEC88BB089581EE88BB08953F
S11303308AE888BB089587EC88BB089588EC88BB5D
S113034008958BEA88BB089580EC88BB08958CE8F7
S113035088BB089588E988BB08958FEA88BB08950F
S113036082E988BB089587E888BB089581EC88BB3F
S1130370089581EC88BB089585ED88BB089589E8CC
S113038088BB089581E988BB089584EA88BB0895F1
S113039080EA88BB089583E888BB089587EA88BB10
S11303A0089581EA88BB089584E888BB08958EE89F
S11303B088BB089580E988BB08958BE888BB0895BD
S11303C08FEE88BB089581EF88BB08958AE888BBC7
S11303D0089589EF88BB08958BEA88BB08958BEA5A
S11303E088BB089583EA88BB08958CE888BB089588
S11303F088E988BB08958FEA88BB089582E988BBA1
S1130400089587E888BB089583EE88BB089583EE3A
S113041088BB089585ED88BB089589E888BB089555
S113042081E988BB089584EA88BB08958FEF88BB6F
S113043008958FEF87BB82B988BB80E883B9AEDEAD
S11304407DDE789480E091E02DDF80911001909121
S11304501101892BD1F38091120190911301FC01B8
S1130460E45FFE4F60812ADF1092110110921001A7
S1130470ECCFEE0FFF1F0024001C0BBE0790F6917B
S10B0480E02D0994F894FFCF6C
S10D04885374617274200D0A000021
S9030000FC
