S00E0000657831345F332E7372656342
S113000045C0000053C0000051C000004FC00000B4
S11300104DC000004BC0000049C0000047C00000B4
S113002045C0000043C0000041C000003FC00000C4
S11300303DC000003BC0000039C000004BC00000C0
S113004035C0000033C0000031C000002FC00000E4
S11300502DC000002BC0000029C0000027C00000F4
S113006025C0000023C0000021C000001FC0000004
S11300701DC000001BC0000019C0000017C0000014
S113008015C0000013C0000011C0000011241FBEE1
S1130090CFEFD0E1DEBFCDBF21E0A0E0B1E001C0F1
S11300A01D92A230B207E1F70FD035C0A9CF83B7B4
S11300B0886083BF12BE80E981BF87B7826087BF33
S11300C083B7876083BF08958FEF87BB88BBEFDF5B
S11300D07894FFCF1F920F920FB60F9211248F9333
S11300E09F938091000190910101019690930101E9
S11300F0809300018336910539F488B3809588BBD9
S113010010920101109200019F918F910F900FBEE8
S10D01100F901F901895F894FFCF8C
S9030000FC
