S00E0000657831345F312E7372656344
S113000045C0000053C0000051C000004FC00000B4
S11300104DC000004BC0000049C0000047C00000B4
S113002045C0000043C0000041C000003FC00000C4
S11300303DC000003BC0000039C0000037C00000D4
S113004045C0000033C0000031C000002FC00000D4
S11300502DC000002BC0000029C0000027C00000F4
S113006025C0000023C0000021C000001FC0000004
S11300701DC000001BC0000019C0000017C0000014
S113008015C0000013C0000011C0000011241FBEE1
S1130090CFEFD0E1DEBFCDBF21E0A0E0B1E001C0F1
S11300A01D92A430B207E1F70BD03BC1A9CF13BE18
S11300B012BE87B7816087BF83B7876083BF089507
S11300C08FEF87BB88BBF3DF7894FFCF1F920F922B
S11300D00FB60F9211240BB60F922F933F934F93A9
S11300E05F936F937F938F939F93AF93BF93EF939C
S11300F0FF9320E030E040E85FE3609100017091FD
S1130100010180910201909103012ED060930001BE
S113011070930101809302019093030120E030E089
S113012041E652E485D081110BC088B3809588BB29
S11301301092000110920101109202011092030129
S1130140FF91EF91BF91AF919F918F917F916F91AB
S11301505F914F913F912F910F900BBE0F900FBE67
S11301600F901F9018955058BB27AA270ED09FC0F8
S113017090D030F095D020F031F49F3F11F41EF46C
S113018085C00EF4E095E7FB7BC0E92FA1D080F396
S1130190BA17620773078407950718F071F49EF580
S11301A0B9C00EF4E0950B2EBA2FA02D0B01B901A6
S11301B090010C01CA01A0011124FF27591B99F0D9
S11301C0593F50F4503E68F11A16F040A22F232FE5
S11301D0342F4427585FF3CF469537952795A79535
S11301E0F0405395C9F77EF41F16BA0B620B730BDC
S11301F0840BBAF09150A1F0FF0FBB1F661F771F4D
S1130200881FC2F70EC0BA0F621F731F841F48F401
S1130210879577956795B795F7959E3F08F0B3CF87
S11302209395880F08F09927EE0F97958795089571
S113023003D008F481E00895990F0008550FAA0B24
S1130240E0E8FEEF16161706E807F907C0F01216E5
S11302501306E407F50798F0621B730B840B950BE8
S113026039F40A2661F0232B242B252B21F408953D
S11302700A2609F4A140A6958FEF811D811D0895DA
S113028097F99F6780E870E060E008959FEF80EC45
S1130290089500240A9416161706180609060895E8
S11302A000240A9412161306140605060895092E4E
S11302B00394000C11F4882352F0BB0F40F4BF2BBD
S11302C011F460FF04C06F5F7F4F8F4F9F4F0895FD
S11302D057FD9058440F551F59F05F3F71F04795F3
S11302E0880F97FB991F61F09F3F79F087950895D8
S11302F0121613061406551FF2CF4695F1DF08C0F7
S1130300161617061806991FF1CF86957105610513
S113031008940895E894BB2766277727CB0197F9BB
S10903200895F894FFCFDC
S9030000FC
