S0120000657831345F355F6770742E7372656392
S113000045C0000060C000005EC000005CC000008D
S11300105AC0000058C0000056C0000054C0000080
S113002052C0000050C000004EC000004CC0000090
S11300304AC0000048C0000046C0000052C0000092
S113004042C0000040C000003EC000003CC00000B0
S11300503AC0000038C0000036C0000034C00000C0
S113006032C0000030C000002EC000002CC00000D0
S11300702AC0000028C000006AC0000024C000009C
S113008022C0000020C000001EC0000011241FBEBA
S1130090CFEFD0E1DEBFCDBF11E0A0E0B1E0E6E0FC
S11300A0F3E000E00BBF02C007900D92AA31B10744
S11300B0D9F721E0AAE1B1E001C01D92A033B20753
S11300C0E1F7FAD01EC19CCF83B7886083BF12BE0C
S11300D084E281BF87B7826087BF83B7876083BFAD
S11300E008951F920F920FB60F9211248F939F932E
S11300F080912E0190912F01019690932F0180936E
S11301002E01049721F410922F0110922E0181E008
S113011090E090932D0180932C019F918F910F90EB
S11301200FBE0F901F901895EAE9F0E08081806877
S113013080838081886180838FE58093990008950E
S113014090919B0095FFFCCF80939C0008951F9293
S11301500F920FB60F9211240BB60F922F933F9369
S11301604F935F936F937F938F939F93AF93BF93BB
S1130170CF93EF93FF93C0919C008C2FE1DFCD30A0
S113018081F523C080911A0190911B01281739072A
S113019094F4FC013197E21BF30BEE0FFF1FE45EB6
S11301A0FE4F80819181F901EE0FFF1FEC5DFE4F40
S11301B09183808307C0F901EE0FFF1FEC5DFE4FB2
S11301C0118210822F5F3F4F02C020E030E02430C4
S11301D03105C4F210921B0110921A018AE0B0DFBB
S11301E02AC080ED8C0F8A30C0F420911A0130911E
S11301F01B0124303105FCF48C2F90E0C097F901E9
S1130200EE0FFF1FE45EFE4F918380832F5F3F4F0D
S113021030931B0120931A010EC0C13761F4E091A1
S11302201A01F0911B01EE0FFF1FE45EFE4F8DE2F9
S113023090E091838083FF91EF91CF91BF91AF9133
S11302409F918F917F916F915F914F913F912F91EA
S11302500F900BBE0F900FBE0F901F901895CF9369
S1130260DF93EC0102C06CDF219688818111FBCF02
S1130270DF91CF910895009719F480E183B910C0FC
S11302808130910519F480E283B90AC08230910566
S113029019F480E483B904C0039711F480E883B9A6
S11302A0FB01E050FF4F808188BB4130510519F4B8
S11302B088B38F7788BB08958FEF87BB82B988BBDB
S11302C080E883B931DF00DF789481E191E0C7DF12
S11302D080912C0190912D01892BD1F380912E01D5
S11302E090912F01FC01EE0FFF1FEC5DFE4F60812A
S11302F0718140E050E0BFDF10922D0110922C017B
S1090300E7CFF894FFCFE3
S1130306C0F9A4B0999282D880908883C6A1868EBB
S10D0316BF5374617274200D0A00D5
S9030000FC
