S00E000066696E616C332E73726563D9
S113000045C0000058C0000056C0000054C00000A5
S113001052C0000050C000004EC000004CC00000A0
S11300204AC0000048C0000046C0000044C00000B0
S113003042C0000040C000003EC000003CC00000C0
S11300403AC0000038C0000036C0000034C00000D0
S113005032C0000030C000002EC000002CC00000E0
S11300602AC0000028C0000026C0000024C00000F0
S113007022C0000020C0000046C000001CC00000D8
S11300801AC0000018C0000016C0000011241FBED2
S1130090CFEFD0E1DEBFCDBF11E0A0E0B1E0E8E7F3
S11300A0F1E000E00BBF02C007900D92A433B1074A
S11300B0D9F70ED05FC0A4CFEAE9F0E08081806870
S11300C080838081886180838FE58093990008957F
S11300D08FEF8093640087BB82B9EEDF7894FFCF03
S11300E090919B0095FFFCCF80939C000895CF9343
S11300F0DF93EC0102C0F4DF219688818111FBCFEC
S1130100DF91CF9108951F920F920FB60F92112491
S11301100BB60F922F933F934F935F936F937F93FD
S11301208F939F93AF93BF93CF93EF93FF93C0911C
S11301309C008C2FD5DFCD3049F480E091E0D7DFEF
S11301408BE191E0D4DF80E091E0D1DFFF91EF918A
S1130150CF91BF91AF919F918F917F916F915F915B
S11301604F913F912F910F900BBE0F900FBE0F90A8
S10B01701F901895F894FFCFCD
S11301780D0A202323232323232323232323232375
S113018823232323232323200D0A000D0A202323BA
S113019841546D6567613132382052656164792054
S10701A80D0A000038
S9030000FC
