S00E0000657831345F342E7372656341
S113000045C0000060C000005EC000005CC000008D
S11300105AC0000058C0000056C0000054C0000080
S113002052C0000050C000004EC000004CC0000090
S11300304AC0000048C0000046C0000052C0000092
S113004042C0000040C000003EC000003CC00000B0
S11300503AC0000038C0000036C0000034C00000C0
S113006032C0000030C000002EC000002CC00000D0
S11300702AC0000028C0000026C0000024C00000E0
S113008022C0000020C000001EC0000011241FBEBA
S1130090CFEFD0E1DEBFCDBF11E0A0E0B1E0E4EAF4
S11300A0F1E000E00BBF02C007900D92A231B1074E
S11300B0D9F721E0A2E1B1E001C01D92A631B20757
S11300C0E1F753D06DC09CCF83B7886083BF12BE65
S11300D084E281BF87B7826087BF83B7876083BFAD
S11300E008951F920F920FB60F9211248F939F932E
S11300F080911401909115010196909315018093BC
S11301001401049721F4109215011092140181E056
S113011090E090931301809312019F918F910F901F
S11301200FBE0F901F901895009719F480E183B9C2
S113013010C08130910519F480E283B90AC082307D
S1130140910519F480E483B904C0039711F480E89D
S113015083B9FB01E050FF4F808188BB41305105DA
S113016019F488B38F7788BB08958FEF87BB82B962
S113017088BB80E883B9A8DF7894809112019091BC
S11301801301892BD1F3809114019091150140E062
S113019050E0BC01C9DF1092130110921201EDCF9F
S10701A0F894FFCFFD
S11301A4C0F9A4B0999282D880908883C6A1868E1F
S10501B4BF0086
S9030000FC
