:1000000045C0000025C1000077C000005CC00000B2
:100010005AC0000058C0000056C0000054C0000084
:1000200052C0000050C000004EC000004CC0000094
:100030004AC0000048C0000046C0000044C00000A4
:1000400042C0000040C000003EC000003CC00000B4
:100050003AC0000038C0000036C0000034C00000C4
:1000600032C0000030C000002EC000002CC00000D4
:100070002AC0000028C0000026C0000024C00000E4
:1000800022C0000020C000001EC0000011241FBEBE
:10009000CFEFD0E1DEBFCDBF11E0A0E0B1E0EAEFED
:1000A000F2E000E00BBF02C007900D92A031B10753
:1000B000D9F721E0A0E1B1E001C01D92A231B20761
:1000C000E1F79FD018C19CCF8EE080936A0083E057
:1000D00089BF7894089520B330E02095309502C010
:1000E000359527958A95E2F7C9018170992720FFF8
:1000F00002C081E090E008951F920F920FB60F9218
:1001000011240BB60F922F933F934F935F936F93EE
:100110007F938F939F93AF93BF93EF93FF932FEFB3
:100120008FE794E0215080409040E1F700C000004C
:1001300081E090E0D0DF892B31F081E090E0909376
:1001400011018093100182E088BFFF91EF91BF9170
:10015000AF919F918F917F916F915F914F913F915F
:100160002F910F900BBE0F900FBE0F901F90189500
:10017000EAE9F0E08081886180838FE580939900CF
:100180000895EBE9F0E09081907290839923C9F390
:1001900080939C000895CF93DF93EC0102C0F1DFC0
:1001A000219688818111FBCFDF91CF9108958091B5
:1001B0009B0088231CF480919C000895809110017D
:1001C00090911101892B99F3089598B3909561301E
:1001D000710559F421E030E002C0220F331F8A95E7
:1001E000E2F7922B909598BB089521E030E002C091
:1001F000220F331F8A95E2F720959223909598BBA2
:1002000008958FEF87BB11BA88BB5EDFB1DF82E054
:1002100091E0C1DFCCDFC82F8D3069F48BE091E035
:10022000BADF8FEF88BB61E070E0809100019091B0
:100230000101CBDFEFCFA5DF80ED8C0F883050F7C9
:100240008C2F90E0C0979093010180930001E2CF42
:100250001F920F920FB60F9211240BB60F922F938D
:100260003F934F935F936F937F938F939F93AF933E
:10027000BF93EF93FF9389B78E7F89BF2FEF8FE7EF
:1002800094E0215080409040E1F700C0000080E001
:1002900090E021DF892BC1F08FEF88BB80910001B6
:1002A00090910101019690930101809300010897BC
:1002B00021F4109201011092000161E070E0809140
:1002C00000019091010181DF81E088BF83E089BF57
:1002D000FF91EF91BF91AF919F918F917F916F911E
:1002E0005F914F913F912F910F900BBE0F900FBEDA
:0A02F0000F901F901895F894FFCFAF
:1002FA00FFFF5374617274200D0A000D200A00007A
:00000001FF
