:1000000045C000004BC0000049C0000047C00000D0
:1000100045C0000043C0000041C000003FC00000D8
:100020003DC000003BC0000039C0000037C00000E8
:1000300035C0000033C0000031C000002FC00000F8
:100040002DC000002BC0000029C0000027C0000008
:1000500025C0000023C0000021C000001FC0000018
:100060001DC000001BC0000019C0000017C0000028
:1000700015C0000013C0000011C000000FC0000038
:100080000DC000000BC0000009C0000011241FBEFD
:10009000CFEFD0E1DEBFCDBF61D08CC0B1CF20B3F8
:1000A00030E02095309502C0359527958A95E2F786
:1000B000C9018170992720FF02C081E090E0089576
:1000C00098B390956130710559F421E030E002C099
:1000D000220F331F8A95E2F7922B909598BB0895D3
:1000E00021E030E002C0220F331F8A95E2F720950D
:1000F0009223909598BB0895CF93DF93EC016130E4
:10010000710579F4CCDF892BD9F486E69EE001975E
:10011000F1F70000CE01C3DF0197A9F481E090E080
:100120001AC0BDDF019791F486E69EE00197F1F7D2
:100130000000CE01B4DF892B61F481E090E00BC0B8
:1001400080E090E008C080E090E005C080E090E0B2
:1001500002C080E090E0DF91CF9108958FEF87BBE0
:1001600088BB80E883B900E010E061E070E080E0E7
:1001700090E0C2DF892B11F00F5F1F4F61E070E04C
:1001800087E090E0B9DF892B11F000E010E0C0E0DB
:10019000D0E00CC0B8010C2E02C0759567950A948A
:1001A000E2F761707727CE018BDF2196C830D10549
:0801B0008CF3DBCFF894FFCFC4
:00000001FF
