:1000000045C0000060C000005EC000005CC0000091
:100010005AC0000058C0000056C0000054C0000084
:1000200052C0000050C000004EC000004CC0000094
:100030004AC0000048C0000046C0000052C0000096
:1000400042C0000040C000003EC000003CC00000B4
:100050003AC0000038C0000036C0000034C00000C4
:1000600032C0000030C000002EC000002CC00000D4
:100070002AC0000028C000006AC0000024C00000A0
:1000800022C0000020C000001EC0000011241FBEBE
:10009000CFEFD0E1DEBFCDBF11E0A0E0B1E0E6E1FF
:1000A000F3E000E00BBF02C007900D92A033B10750
:1000B000D9F721E0A0E3B1E001C01D92A634B20758
:1000C000E1F702D126C19CCF83B7886083BF12BEFF
:1000D00084E281BF87B7826087BF83B7876083BFB1
:1000E00008951F920F920FB60F9211248F939F9332
:1000F00080913C0190913D01019690933D01809348
:100100003C01049721F410923D0110923C0181E0E2
:1001100090E090933B0180933A019F918F910F90D3
:100120000FBE0F901F901895EAE9F0E0808180687B
:1001300080838081886180838FE580939900089512
:1001400090919B0095FFFCCF80939C0008951F9297
:100150000F920FB60F9211240BB60F922F933F936D
:100160004F935F936F937F938F939F93AF93BF93BF
:10017000CF93EF93FF93C0919C008C2FE1DFCD30A4
:10018000C1F52BC0809130019091310128173907BA
:10019000BCF4E3E0F0E0AF01421B530BFC013197EC
:1001A000E21BF30BEE0FFF1FE25CFE4F808191819B
:1001B000FA01EE0FFF1FEE5CFE4F918380830AC0B1
:1001C000E3E0F0E0E21BF30BEE0FFF1FEE5CFE4FEF
:1001D000118210822F5F3F4F02C020E030E02430B8
:1001E000310584F210923101109230018AE0A8DFCB
:1001F0002AC080ED8C0F8A30C0F4209130013091FC
:10020000310124303105FCF48C2F90E0C097F901C6
:10021000EE0FFF1FE25CFE4F918380832F5F3F4F05
:1002200030933101209330010EC0C13761F4E09169
:100230003001F0913101EE0FFF1FE25CFE4F8DE2C5
:1002400090E091838083FF91EF91CF91BF91AF9127
:100250009F918F917F916F915F914F913F912F91DE
:100260000F900BBE0F900FBE0F901F901895CF935D
:10027000DF93EC0102C064DF219688818111FBCFFE
:10028000DF91CF910895009719F480E183B910C0F0
:100290008130910519F480E283B90AC0823091055A
:1002A00019F480E483B904C0039711F480E883B99A
:1002B000FB01E050FF4F808188BB4130510519F4AC
:1002C00088B38F7788BB08958FEF87BB82B988BBCF
:1002D00080E883B929DFF8DE789481E191E0C7DF17
:1002E00080913A0190913B01892BD1F380913C019F
:1002F00090913D01FC01EE0FFF1FEE5CFE4F60810F
:10030000718140E050E0BFDF10923B0110923A0152
:06031000E7CFF894FFCFD7
:10031600C0F9A4B0999282D880908883C6A1868EAF
:10032600BF0D0A37205365676D656E7420436F6E87
:1003360074726F6C2050726F6772616D200D0A00C7
:00000001FF
