S01000007765656B31305F312E7372656377
S113000045C000004BC0000049C0000047C00000CC
S113001045C0000043C0000041C000003FC00000D4
S11300203DC000003BC0000039C0000037C00000E4
S113003035C0000033C0000031C000002FC00000F4
S11300402DC000002BC0000029C0000027C0000004
S113005025C0000023C0000021C000001FC0000014
S11300601DC000001BC0000019C0000017C0000024
S113007015C0000013C0000011C000000FC0000034
S11300800DC000000BC0000009C0000011241FBEF9
S1130090CFEFD0E1DEBFCDBF26D02CC0B1CF20E062
S11300A030E005C045E04A95F1F72F5F3F4F281730
S11300B03907C0F308950F931F93CF93DF938C01F7
S11300C015950795C5E6D0E0888180618883C801CD
S11300D0E6DF88818F7E8883C801E1DFDF91CF91DD
S11300E01F910F9108958FEF8093640084E797E048
S10B00F0E2DFFCCFF894FFCF1E
S9030000FC
