S00F00007765656B335F312E73726563A6
S113000045C000004BC0000049C0000047C00000CC
S113001045C0000043C0000041C000003FC00000D4
S11300203DC000003BC0000039C0000037C00000E4
S113003035C0000033C0000031C000002FC00000F4
S11300402DC000002BC0000029C0000027C0000004
S113005025C0000023C0000021C000001FC0000014
S11300601DC000001BC0000019C0000017C0000024
S113007015C0000013C0000011C000000FC0000034
S11300800DC000000BC0000009C0000011241FBEF9
S1130090CFEFD0E1DEBFCDBF57D06EC0B1CF20B31C
S11300A030E02095309502C0359527958A95E2F782
S11300B0C9018170992720FF02C081E090E0089572
S11300C098B390956130710559F421E030E002C095
S11300D0220F331F8A95E2F7922B909598BB0895CF
S11300E021E030E002C0220F331F8A95E2F7209509
S11300F09223909598BB0895CF93DF93EC016130E0
S1130100710551F4CCDF892B89F4CE01C8DF019746
S113011081F481E090E015C0C2DF019769F4CE015B
S1130120BEDF892B61F481E090E00BC080E090E0B9
S113013008C080E090E005C080E090E002C080E06C
S113014090E0DF91CF9108958FEF87BB88BB11BA00
S1130150C0E0D0E061E070E080E090E0CDDF892B8A
S1130160C9F381E0CD2B09F080E0C82FD0E0BE01B7
S10F017080E090E0A5DFEECFF894FFCF14
S9030000FC
