:1000000045C0000058C0000056C0000054C00000A9
:1000100052C0000050C000004EC000004CC00000A4
:100020004AC0000048C0000046C0000044C00000B4
:1000300042C0000040C000003EC000003CC00000C4
:100040003AC0000038C0000036C0000034C00000D4
:1000500032C0000030C000002EC000002CC00000E4
:100060002AC0000028C0000026C0000024C00000F4
:1000700022C0000020C000001EC000001CC0000004
:100080001AC0000018C0000016C0000011241FBED6
:10009000CFEFD0E1DEBFCDBF11E0A0E0B1E0ECE7F3
:1000A000F1E000E00BBF02C007900D92AA30B1074B
:1000B000D9F744D061C0A4CFEAE9F0E0808188613B
:1000C00080838FE5809399000895EBE9F0E09081BB
:1000D000907290839923C9F380939C000895CF93E5
:1000E000DF93EC0102C0F1DF219688818111FBCF03
:1000F000DF91CF91089580919B008823E4F7809150
:100100009C00089598B390956130710559F421E0F1
:1001100030E002C0220F331F8A95E2F7922B9095B0
:1001200098BB089521E030E002C0220F331F8A956A
:10013000E2F720959223909598BB08958FEF87BBA7
:1001400088BBBADF80E091E0CADFD5DFC82FBDDF12
:10015000CD3011F48AE0B9DF80ED8C0F883038F4AF
:100160008C2F90E061E070E0C097CCDFEECFC1371C
:0C01700061F78FEF88BBE9CFF894FFCF58
:0A017C005374617274200D0A000034
:00000001FF
