:1000000045C0000058C0000056C0000054C00000A9
:1000100052C0000050C000004EC000004CC00000A4
:100020004AC0000048C0000046C0000044C00000B4
:1000300042C0000040C000003EC000003CC00000C4
:100040003AC0000038C0000036C0000034C00000D4
:1000500032C0000030C000002EC000002CC00000E4
:100060002AC0000028C0000026C0000024C00000F4
:1000700022C0000020C000001EC000001CC0000004
:100080001AC0000018C0000016C0000011241FBED6
:10009000CFEFD0E1DEBFCDBF11E0A0E0B1E0EEE7F1
:1000A000F4E000E00BBF02C007900D92A231B1074F
:1000B000D9F71DD0E2C1A4CF009719F480E183B92C
:1000C00010C08130910519F480E283B90AC08230F2
:1000D000910519F480E483B904C0039711F480E812
:1000E00083B9FB01E050FF4F808188BB08958FEFFB
:1000F00087BB9FE094BB11BA82B980E883B980B313
:100100008F3F61F560E070E080E090E0D5DF8FEF39
:1001100093E20197F1F700C0000061E070E081E038
:1001200090E0CADF8FEF93E20197F1F700C0000083
:1001300062E070E082E090E0BFDF8FEF93E2019732
:10014000F1F700C0000063E070E083E090E0B4DF0E
:100150008FEF93E20197F1F700C0000080B38E3F6C
:10016000A9F503C018BA019602C080E090E084307F
:100170009105C4F364E070E080E090E09DDF8FEFD4
:1001800093E20197F1F700C0000065E070E081E0C4
:1001900090E092DF8FEF93E20197F1F700C000004B
:1001A00061E070E082E090E087DF8FEF93E20197FB
:1001B000F1F700C0000060E070E083E090E07CDFD9
:1001C0008FEF93E20197F1F700C0000080B38D3FFD
:1001D000B1F503C018BA019602C080E090E0843007
:1001E0009105C4F366E070E080E090E065DF8FEF9A
:1001F00093E20197F1F700C0000067E070E081E052
:1002000090E05ADF8FEF93E20197F1F700C0000012
:1002100067E070E082E090E04FDF8FEF93E20197BC
:10022000F1F700C0000068E070E083E090E044DF98
:100230008FEF93E20197F1F700C0000060CF80B329
:100240008B3FB1F503C018BA019602C080E090E080
:1002500084309105C4F369E070E080E090E02CDF29
:100260008FEF93E20197F1F700C0000067E070E0C4
:1002700081E090E021DF8FEF93E20197F1F700C07A
:10028000000067E070E082E090E016DF8FEF93E21D
:100290000197F1F700C0000061E070E083E090E0BA
:1002A0000BDF8FEF93E20197F1F700C0000027CF3B
:1002B00080B3873FB1F503C018BA019602C080E051
:1002C00090E084309105C4F36AE070E080E090E053
:1002D000F3DE8FEF93E20197F1F700C000006BE0CF
:1002E00070E081E090E0E8DE8FEF93E20197F1F7B4
:1002F00000C000006CE070E082E090E0DDDE8FEF97
:1003000093E20197F1F700C0000065E070E083E040
:1003100090E0D2DE8FEF93E20197F1F700C000008A
:10032000EECE80B38F3EB1F503C018BA019602C07D
:1003300080E090E084309105C4F36DE070E080E0EF
:1003400090E0BADE8FEF93E20197F1F700C0000072
:1003500060E070E081E090E0AFDE8FEF93E2019724
:10036000F1F700C0000065E070E082E090E0A4DEFC
:100370008FEF93E20197F1F700C000006EE070E0AC
:1003800083E090E099DE8FEF93E20197F1F700C0F0
:100390000000B5CE80B38F3DB1F503C018BA019609
:1003A00002C080E090E084309105C4F361E070E029
:1003B00080E090E081DE8FEF93E20197F1F700C0DB
:1003C00000006FE070E081E090E076DE8FEF93E276
:1003D0000197F1F700C0000060E170E082E090E07A
:1003E0006BDE8FEF93E20197F1F700C0000065E04C
:1003F00070E083E090E060DE8FEF93E20197F1F729
:1004000000C000007CCE80B38F3B09F078CE03C0E3
:1004100018BA019602C080E090E084309105C4F3E0
:1004200069E070E080E090E047DE8FEF93E20197B3
:10043000F1F700C0000067E070E081E090E03CDE92
:100440008FEF93E20197F1F700C0000061E170E0E7
:1004500082E090E031DE8FEF93E20197F1F700C088
:10046000000065E070E083E090E026DE8FEF93E22D
:0E0470000197F1F700C0000042CEF894FFCFD4
:10047E008CC788918986C2A3A1C692C18FC0ABCF0B
:02048E008EA13D
:00000001FF
